:04000000803118280B
:100008007E14803100308600003087004E01161EB5
:100018000E280F2816280C1E12281328162881319E
:10002800312180317E10090080311A28F001F10158
:10003800F201F301F401F501F601F7017E10400128
:100048008031AC28400196019701980199019A01E5
:10005800FF309100FF309200B8309300FF309400D9
:1000680007309500FF307E01B800FF30C30018301C
:10007800CE00F030D9000730E400B901C401CF0147
:10008800DA01E501BA01C501D001DB01E601FF3063
:10009800BB00FF30C600FF30D100F330DC00073072
:1000A800E700FF30BC00FF30C700FF30D200F3305C
:1000B800DD000F30E80017307D01CB0010307E01E5
:1000C800A600BD01BE01BF01C801C901CA01203097
:1000D800D300D401D501E901EA01EB014D30F80064
:1000E8000130F90081313A2180314E01161608009D
:1000F800CF34003400340034003400340034003489
:100108000034003400340034003400340034003447
:100118000034003400340034003400340034003437
:100128000034003400340034003400340034003427
:100138000034003400340034003400340034003417
:100148001C340134113401340034003400340034D8
:100158008031F92080318B170B178131492180318B
:100168002930FB009630FA007F30890BB928FA0B4A
:10017800B928FB0BB928000003104001181C031410
:100188000318C728CA2840011814CC2840011810A1
:10019800B42880311828483042019F0090309D00D3
:1001A80026309E0040309B0003309C000030F80051
:1001B8000030F90081311C2180310030F800003016
:1001C800F900813111218031F401F50108007C0822
:1001D8007D040319F028F128F6287D088A007C0898
:1001E8000A0080317E01D512080081312721803133
:1001F8008031262080318031CF2080318131062125
:10020800803108004E010C100B140030F80000304B
:10021800F90081313F2181310800780879040319F8
:10022800162917291B297908F1007808F000080019
:100238007808790403192129222926297908F30045
:100248007808F2000800603051018D008F0191019B
:10025800063093002030920008007E01D51E352913
:10026800362939298031EB20813108007908FD00D1
:100278007808FC0008007908F7007808F6000800FC
:10028800400113080238930008008131442181316C
:040298000800080052
:020000040001F9
:0A000E008F3FFF3F9F3FFF3FFF3F82
:00000001FF
