:04000000803118280B
:100008007E14803100308600003087004E01161EB5
:100018000E280F2816280C1E12281328162881319E
:10002800F92180317E10090080311A28FC01FD0178
:10003800203084000030850015308231092280315B
:100048007E10400180318C284001960197011830BC
:10005800980099019A01FF309100FF309200B83062
:100068009300FF30940007309500FF307E01B80000
:10007800FF30C300CE01FC30D9000730E400B901DD
:10008800C4011830CF00DA01E501BA01C501183002
:10009800D000DB01E601FF30BB00FF30C600FF30B7
:1000A800D100FF30DC000730E700FF30BC00FF3034
:1000B800C700FF30D200FF30DD000F30E8001730F6
:1000C8007D01CB0010307E01A60013307D01C500F4
:1000D80014307E01A30014307D01C60015307E0166
:1000E800A400BD01BE01BF01C801C901CA01203079
:1000F800D300D401D501E901EA01EB012330F00076
:100108000230F10082310F2280314E0116160800AC
:100118008131922180318B170B17F6010030813124
:1001280051218031F601F60A123081315121803196
:100138002930FB009630FA007F30890BA128FA0B92
:10014800A128FB0BA1280000823115228031003A3A
:10015800031DAF28B028BC2803104001181C031445
:100168000318B728BA2840011814BC2840011810F1
:10017800F601F60A12308131512180312930FB0015
:100188009630FA007F30890BC728FA0BC728FB0B7B
:10019800C7280000823115228031003A0319D5287A
:1001A800D628962803104001181C03140318DD28CC
:1001B800E02840011814E2284001181096288031E0
:1001C8001828343401340034003400340034003446
:1001D8000034003400340034003400340034003477
:1001E8000034003400340034003400340034003467
:1001F8000034003400340034003400340034003457
:100208000034003400340034003400340034003446
:100218000034CD340134C1340134003400340034A6
:1002280000348131A2218131003A031D1C291D2986
:10023800332901304001A0007208A2007108A10012
:10024800AA017308A3007508A5007408A400A601F4
:10025800A701A801A901AB0182310222813108005E
:10026800483042019F0090309D0026309E0040306B
:100278009B0003309C000030F0000030F100813119
:10028800CD2181310030F0000030F1008131C121F1
:1002980081314001B101B2010800F7007708F80088
:1002A8007608F9002730F1000030F2007830F300CA
:1002B8000230F4000030F50081311521813181319F
:1002C800A2218131003A031D6A296B29632908009C
:1002D800E43401340034003415340134003400347B
:1002E800003400340034003415340234A2340134AC
:1002F8000034003400340034003400340034003456
:100308000034003400340034003400340034003445
:100318000034003400340034003400348131EF21DB
:1003280081318031282081318131342181318131FD
:10033800E42181318131D921813108000130F00077
:1003480040012008031DA929AA29B02943018F19B2
:10035800AE29AF29B029F00170080800400135081E
:1003680036040319B829B929BE2936088A00350880
:100378000A0081317E01D512080070087104031942
:10038800C629C729CC2971084001AE007008AD0004
:100398000800700871040319D229D329D8297108D3
:1003A8004001B0007008AF0008004E010C100B149B
:1003B8000030F0000030F10082311B22813108004A
:1003C800803043018F0008309000910192014F3036
:1003D8008D0090160800603051018D008F01910149
:1003E800063093002030920008007E01D51EFD29BA
:1003F800FE29012A8131B22181310800823120226F
:10040800823102304001AC000800640080010131F3
:10041800890B0A2A003471084001B6007008B5003B
:10042800080040012B08F000AB01700808007108B3
:10043800FD007008FC0008004301111408000800C2
:020000040001F9
:0A000E008F3FFF3F9F3FFF3FFF3F82
:00000001FF
