:0400000080313428EF
:100008007E14803100308600003087004E01161EB5
:100018000E280F2817280C1E12281328172882319B
:100028008022803132280B1F1A281B283228991C5D
:100038001E281F2827288F1C22282328272882319A
:10004800E42280313228191C2A282B2832280F1C38
:100058002E282F2832288231E02280317E10090094
:1000680080313628F001F101F201F301F401F501C4
:10007800203084000030850012308231AE22803179
:100088007E10400181318E29400196019701183078
:10009800980099019A01FF309100FF309200B83022
:1000A8009300FF30940007309500FF307E01B800C0
:1000B800FF30C300CE01FC30D9000730E400B9019D
:1000C800C401CF01DA01E501BA01C501D001DB01A4
:1000D800E601FF30BB00FF30C600FF30D100FF3023
:1000E800DC000730E700FF30BC00FF30C700FF30FE
:1000F800D200FF30DD000F30E80017307D01CB0063
:1001080010307E01A60013307D01C50014307E0139
:10011800A30014307D01C60015307E01A400BD0186
:10012800BE01BF01C801C901CA012030D300D401F2
:10013800D501E901EA01EB0115304001B2000330B5
:10014800B3008231B42280314E0116160800833183
:100158000F23803143010F1EB228B328B7288131FD
:10016800E9218031E228823199228031003A03194D
:10017800BE28BF28CD288231C0228031003A031919
:10018800C628C728CD2805304001AD000130AC0095
:10019800E2288231D2228031003A0319D428D528A6
:1001A800E2288231C0228031003A0319DC28DD2898
:1001B800E22805304001AD000230AC0040012D08B6
:1001C800F800F901F835F90D12307807840002308B
:1001D800793D80388500013F8A00003F0A00803160
:1001E8004001AD0008000430F6008231F022803171
:1001F800003A0319002901292C29400129082A0459
:1002080003190729082919292708860028088700BB
:10021800833109238031810001304001A707003074
:10022800A83D0130A9020030AA3B29082A04031975
:100238001E291F2923298231F42280312F29833155
:10024800032380318231EC2280310730F6002F29D8
:1002580083310623803176080800AD340134003438
:1002680000340034003400340034003400340034E6
:1002780000340034003400340034003400340034D6
:1002880000340034003400340034003400340034C6
:1002980000340034003400340034003400340034B6
:1002A800003400340034003400346A3402345E34DC
:1002B8000234003400340034003440012508260498
:1002C8000319672968297C290130A5020030A63B5B
:1002D800230886002408870001088231D72281314B
:1002E80001304001A3070030A43D0330F7008C29FA
:1002F8002B080319802981298829AB018331002320
:1003080081310130F7008C29823189228131F7004F
:100318007708080082312422813103104001181C1B
:100328000314031898299B29400118149D2940019A
:10033800181052304001B5002B30B4000030890B42
:10034800A329B40BA329B50BA32900009129803157
:100358003428483042019F0090309D0026309E008E
:1003680040309B0003309C0000304001B200003058
:10037800B30082316A22813100304001B20000307E
:10038800B30082315E2281314001AE01AF01080025
:1003980006304001AD000330AC00833112238131B7
:1003A80040012D08F800F901F835F90D12307807E9
:1003B80084000230793D80388500013F8A00003F83
:1003C8000A0081314001AD0008004001A001003061
:1003D800A200FF30A100A301A401A701A801AD015B
:1003E80083310F2381318331122381318231F82205
:1003F80081310800343402340034003400340034CD
:100408000034003400340034003400340034003444
:10041800003400340034003400340034E83402344A
:1004280091340234A734023461340134F73400348F
:10043800CC340234C634023489340234A034023451
:100448008231762282318031482082318131AD215A
:100458008231823134228231823152228231080043
:10046800803043018F0008309000910192011330D1
:100478008D008231DC228231430190160800400150
:10048800360837040319492A4A2A4F2A37088A00A6
:1004980036080A0082317E01D51208004E010C1080
:1004A8000B1400304001B2000030B3008231BA2290
:1004B800823108004001320833040319642A652A8E
:1004C800692A3308F1003208F000080040013208B8
:1004D80033040319702A712A752A3308F300320885
:1004E800F2000800603051018D008F019101063043
:1004F80093002030920008007E01D51E842A852AA8
:10050800882A823143228231080083310C238231C8
:100518008131E92182310030080003144001210DA6
:100528008231D722823104300800031043018F1E24
:1005380003140030093D08008231FC228231400159
:10054800A00100300800400121358231D7228231D4
:1005580003300800640080010131890BAF2A0034A0
:1005680040013308B7003208B600080040013308DC
:10057800F5003208F40008004301110E890C890CBB
:10058800013908008231A0228231F600760808007D
:10059800823189228231F6007608080043010F0E65
:1005A800890C01390800F600760843018C00080020
:1005B8004E011914991408008031AB2082310800CB
:1005C8008131CC21823108004001A00108300800A7
:1005D800430191161116080043010F08013908005C
:1005E80043019112111608004301901310130800DB
:1005F800430190129016080043019114080043012A
:100608009110080043019115080043010C080800E7
:100618004301111508004E010F1008004E018F10FC
:0406280008000800BE
:020000040001F9
:0A000E008F3FFF3F9F3FFF3FFF3F82
:00000001FF
