:04000000803118280B
:100008007E14803100308600003087004E01161EB5
:100018000E280F2816280C1E12281328162881319E
:100028006F2180317E10090080311A28F001F1011A
:10003800F201F301F401F501F601F7017E10400128
:1000480080317C28400196019701980199019A0115
:10005800FF309100FF309200B8309300F7309400E1
:1000680007309500FF307E01B800FF30C30018301C
:10007800CE00F030D9000730E400B901C401CF0147
:10008800DA01E501BA01C501D001DB01E601FF3063
:10009800BB00FF30C600FF30D100F330DC00073072
:1000A800E700FF30BC00FF30C700FF30D200F3305C
:1000B800DD000F30E80017307D01CB0010307E01E5
:1000C800A600BD01BE01BF01C801C901CA01203097
:1000D800D300D401D501E901EA01EB019F30F80012
:1000E8000130F90081318B2180314E01161608004C
:1000F80081312A2180318B170B178131782180318A
:100108008131372180312930FB009630FA007F3069
:10011800890B8C28FA0B8C28FB0B8C280000031009
:100128004001181C031403189A289D28400118142C
:100138009F28400118108131092180312930FB00A6
:100148009630FA007F30890BA728FA0BA728FB0BFB
:10015800A728000003104001181C03140318B52831
:10016800B82840011814BA28400118108428803192
:100178001828ED34003400340034003400340034DE
:1001880000340034003400340034003400340034C7
:1001980000340034003400340034003400340034B7
:1001A80000340034003400340034003400340034A7
:1001B8000034003400340034003400340034003497
:1001C80000345A3401344F340134003400340034DC
:1001D8000034483042019F0090309D0026309E0038
:1001E80040309B0003309C000030F8000030F900DC
:1001F80081315A2180310030F8000030F900813116
:100208004F218031F401F50108001030890B0A29CB
:1002180081317F2181311030890B102981319A2158
:1002280081311030890B16298131952181310800DF
:100238007C087D0403192129222927297D088A00A1
:100248007C080A0081317E01D512080081316521C0
:1002580081318031262081318031ED208131813119
:100268004421813108001030890B382981317F21E0
:1002780081311030890B3E29813185218131080077
:100288004E010C100B140030F8000030F9008131D9
:1002980090218131080078087904031954295529D7
:1002A80059297908F1007808F000080078087904DD
:1002B80003195F29602964297908F3007808F20096
:1002C8000800603051018D008F01910106309300C4
:1002D8002030920008007E01D51E732974297729E1
:1002E80081311C218131080081319A21813181318C
:1002F800952181310800400119111408FB39940037
:100308000800400199111408F73994000800790889
:10031800FD007808FC0008007908F7007808F60066
:10032800080040011408043894000800400114082B
:080338000838940008000800D9
:020000040001F9
:0A000E008F3FFF3F9F3FFF3FFF3F82
:00000001FF
